{
    "contractName": "LPSIco",
    "abi": [
        {
            "inputs": [],
            "stateMutability": "nonpayable",
            "type": "constructor"
        },
        {
            "inputs": [],
            "name": "buy",
            "outputs": [],
            "stateMutability": "payable",
            "type": "function"
        },
        {
            "inputs": [],
            "name": "end",
            "outputs": [
                {
                    "internalType": "uint256",
                    "name": "",
                    "type": "uint256"
                }
            ],
            "stateMutability": "view",
            "type": "function"
        },
        {
            "inputs": [],
            "name": "maxPurchase",
            "outputs": [
                {
                    "internalType": "uint256",
                    "name": "",
                    "type": "uint256"
                }
            ],
            "stateMutability": "view",
            "type": "function"
        },
        {
            "inputs": [],
            "name": "minPurchase",
            "outputs": [
                {
                    "internalType": "uint256",
                    "name": "",
                    "type": "uint256"
                }
            ],
            "stateMutability": "view",
            "type": "function"
        },
        {
            "inputs": [],
            "name": "price",
            "outputs": [
                {
                    "internalType": "uint256",
                    "name": "",
                    "type": "uint256"
                }
            ],
            "stateMutability": "view",
            "type": "function"
        },
        {
            "inputs": [],
            "name": "release",
            "outputs": [],
            "stateMutability": "nonpayable",
            "type": "function"
        },
        {
            "inputs": [],
            "name": "released",
            "outputs": [
                {
                    "internalType": "bool",
                    "name": "",
                    "type": "bool"
                }
            ],
            "stateMutability": "view",
            "type": "function"
        },
        {
            "inputs": [
                {
                    "internalType": "uint256",
                    "name": "",
                    "type": "uint256"
                }
            ],
            "name": "sales",
            "outputs": [
                {
                    "internalType": "address",
                    "name": "investor",
                    "type": "address"
                },
                {
                    "internalType": "uint256",
                    "name": "quantity",
                    "type": "uint256"
                }
            ],
            "stateMutability": "view",
            "type": "function"
        },
        {
            "inputs": [
                {
                    "internalType": "address",
                    "name": "_tokenAddress",
                    "type": "address"
                }
            ],
            "name": "setToken",
            "outputs": [],
            "stateMutability": "nonpayable",
            "type": "function"
        },
        {
            "inputs": [
                {
                    "internalType": "uint256",
                    "name": "duration",
                    "type": "uint256"
                },
                {
                    "internalType": "uint256",
                    "name": "_price",
                    "type": "uint256"
                },
                {
                    "internalType": "uint256",
                    "name": "_minPurchase",
                    "type": "uint256"
                },
                {
                    "internalType": "uint256",
                    "name": "_maxPurchase",
                    "type": "uint256"
                }
            ],
            "name": "start",
            "outputs": [],
            "stateMutability": "nonpayable",
            "type": "function"
        },
        {
            "inputs": [],
            "name": "withdraw",
            "outputs": [],
            "stateMutability": "nonpayable",
            "type": "function"
        },
        {
            "stateMutability": "payable",
            "type": "receive"
        }
    ],
    "bytecode": "608060405234801561001057600080fd5b50610d9d806100206000396000f3fe6080604052600436106100a05760003560e01c806396132521116100645780639613252114610141578063977b055b1461016b578063a035b1fe14610181578063a6f2ae3a14610197578063b5f522f71461019f578063efbe1c1c146101de57600080fd5b8063144fa6d7146100ac57806333b5b62e146100ce5780633ccfd60b146100f7578063707a4e961461010c57806386d1a69f1461012c57600080fd5b366100a757005b600080fd5b3480156100b857600080fd5b506100cc6100c7366004610bd8565b6101f4565b005b3480156100da57600080fd5b506100e460055481565b6040519081526020015b60405180910390f35b34801561010357600080fd5b506100cc610249565b34801561011857600080fd5b506100cc610127366004610c01565b6103c3565b34801561013857600080fd5b506100cc610629565b34801561014d57600080fd5b5060075461015b9060ff1681565b60405190151581526020016100ee565b34801561017757600080fd5b506100e460065481565b34801561018d57600080fd5b506100e460045481565b6100cc610854565b3480156101ab57600080fd5b506101bf6101ba366004610c33565b610b81565b604080516001600160a01b0390931683526020830191909152016100ee565b3480156101ea57600080fd5b506100e460035481565b6000546001600160a01b031633146102275760405162461bcd60e51b815260040161021e90610c4c565b60405180910390fd5b600180546001600160a01b0319166001600160a01b0392909216919091179055565b6000546001600160a01b031633146102735760405162461bcd60e51b815260040161021e90610c4c565b60006003541180156102fa5750600354421015806102fa57506001546040516370a0823160e01b81523060048201526001600160a01b03909116906370a0823190602401602060405180830381865afa1580156102d4573d6000803e3d6000fd5b505050506040513d601f19601f820116820180604052508101906102f89190610c70565b155b61033c5760405162461bcd60e51b81526020600482015260136024820152721250d3c81b5d5cdd081a185d9948195b991959606a1b604482015260640161021e565b60075460ff1615156001146103935760405162461bcd60e51b815260206004820152601e60248201527f546f6b656e73206d7573742068617665206265656e2072656c65617365640000604482015260640161021e565b6040513390303180156108fc02916000818181858888f193505050501580156103c0573d6000803e3d6000fd5b50565b6000546001600160a01b031633146103ed5760405162461bcd60e51b815260040161021e90610c4c565b6003541561043d5760405162461bcd60e51b815260206004820152601860248201527f49434f2073686f756c64206e6f74206265206163746976650000000000000000604482015260640161021e565b600084116104865760405162461bcd60e51b815260206004820152601660248201527506475726174696f6e2073686f756c64206265203e20360541b604482015260640161021e565b60008211801561049557508082105b6104f75760405162461bcd60e51b815260206004820152602d60248201527f5f6d696e50757263686173652073686f756c64206265203e203020616e64203c60448201526c205f6d6178507572636861736560981b606482015260840161021e565b60008111801561058357506001546040516370a0823160e01b81523060048201526001600160a01b03909116906370a0823190602401602060405180830381865afa15801561054a573d6000803e3d6000fd5b505050506040513d601f19601f8201168201806040525081019061056e9190610c70565b61058082670de0b6b3a7640000610bb9565b11155b6106035760405162461bcd60e51b8152602060048201526044602482018190527f5f6d617850757263686173652073686f756c64206265203e203020616e64203c908201527f3d205f4c5053546f6b656e2e62616c616e63654f6628616464726573732874686064820152636973292960e01b608482015260a40161021e565b61060d4285610c9f565b600355600492909255600555600655506007805460ff19169055565b6000546001600160a01b031633146106535760405162461bcd60e51b815260040161021e90610c4c565b60006003541180156106da5750600354421015806106da57506001546040516370a0823160e01b81523060048201526001600160a01b03909116906370a0823190602401602060405180830381865afa1580156106b4573d6000803e3d6000fd5b505050506040513d601f19601f820116820180604052508101906106d89190610c70565b155b61071c5760405162461bcd60e51b81526020600482015260136024820152721250d3c81b5d5cdd081a185d9948195b991959606a1b604482015260640161021e565b60075460ff161561077a5760405162461bcd60e51b815260206004820152602260248201527f546f6b656e73206d757374204e4f542068617665206265656e2072656c656173604482015261195960f21b606482015260840161021e565b60005b6002548110156108445760006002828154811061079c5761079c610cb7565b6000918252602090912060018054600290930290910180549181015460405163a9059cbb60e01b81526001600160a01b039384166004820152602481019190915290935091169063a9059cbb906044016020604051808303816000875af115801561080b573d6000803e3d6000fd5b505050506040513d601f19601f8201168201806040525081019061082f9190610ccd565b5050808061083c90610cef565b91505061077d565b506007805460ff19166001179055565b6000600354118015610867575060035442105b80156108dd57506001546040516370a0823160e01b81523060048201526000916001600160a01b0316906370a0823190602401602060405180830381865afa1580156108b7573d6000803e3d6000fd5b505050506040513d601f19601f820116820180604052508101906108db9190610c70565b115b61091e5760405162461bcd60e51b815260206004820152601260248201527149434f206d7573742062652061637469766560701b604482015260640161021e565b60045461092b9034610d20565b156109785760405162461bcd60e51b815260206004820181905260248201527f6861766520746f2073656e642061206d756c7469706c65206f66207072696365604482015260640161021e565b60045460055461098791610bb9565b34101580156109a457506004546006546109a091610bb9565b3411155b610a095760405162461bcd60e51b815260206004820152603060248201527f6861766520746f2073656e64206265747765656e206d696e507572636861736560448201526f20616e64206d6178507572636861736560801b606482015260840161021e565b6000610a32670de0b6b3a7640000610a2c60045434610bcc90919063ffffffff16565b90610bb9565b6001546040516370a0823160e01b81523060048201529192506001600160a01b0316906370a0823190602401602060405180830381865afa158015610a7b573d6000803e3d6000fd5b505050506040513d601f19601f82011682018060405250810190610a9f9190610c70565b811115610aee5760405162461bcd60e51b815260206004820152601f60248201527f4e6f7420656e6f75676820746f6b656e73206c65667420666f722073616c6500604482015260640161021e565b604080518082019091523381526020810191825260028054600181018255600082905291517f405787fa12a823e0f2b7631cc41b3ba8828b3321ca811111fa75cd3aa3bb5ace9290910291820180546001600160a01b0319166001600160a01b0390921691909117905590517f405787fa12a823e0f2b7631cc41b3ba8828b3321ca811111fa75cd3aa3bb5acf90910155565b60028181548110610b9157600080fd5b6000918252602090912060029091020180546001909101546001600160a01b03909116915082565b6000610bc58284610d34565b9392505050565b6000610bc58284610d53565b600060208284031215610bea57600080fd5b81356001600160a01b0381168114610bc557600080fd5b60008060008060808587031215610c1757600080fd5b5050823594602084013594506040840135936060013592509050565b600060208284031215610c4557600080fd5b5035919050565b6020808252600a908201526937b7363c9030b236b4b760b11b604082015260600190565b600060208284031215610c8257600080fd5b5051919050565b634e487b7160e01b600052601160045260246000fd5b60008219821115610cb257610cb2610c89565b500190565b634e487b7160e01b600052603260045260246000fd5b600060208284031215610cdf57600080fd5b81518015158114610bc557600080fd5b6000600019821415610d0357610d03610c89565b5060010190565b634e487b7160e01b600052601260045260246000fd5b600082610d2f57610d2f610d0a565b500690565b6000816000190483118215151615610d4e57610d4e610c89565b500290565b600082610d6257610d62610d0a565b50049056fea264697066735822122057e2e1bcbce928cff1d742c4c1e485af66a55d64765922e0b31d7636441ce84364736f6c634300080c0033",
    "sourcePath": "/Volumes/Disco D/Projects/Blockchain/LostParadise/web3Test/contracts/ico.sol",
    "compiler": {
        "name": "solc",
        "version": "0.8.12+commit.f00d7308"
    },
    "functionHashes": {
        "buy()": "a6f2ae3a",
        "end()": "efbe1c1c",
        "maxPurchase()": "977b055b",
        "minPurchase()": "33b5b62e",
        "price()": "a035b1fe",
        "release()": "86d1a69f",
        "released()": "96132521",
        "sales(uint256)": "b5f522f7",
        "setToken(address)": "144fa6d7",
        "start(uint256,uint256,uint256,uint256)": "707a4e96",
        "withdraw()": "3ccfd60b"
    },
    "gasEstimates": {
        "creation": {
            "codeDepositCost": "697000",
            "executionCost": "728",
            "totalCost": "697728"
        },
        "external": {
            "buy()": "infinite",
            "end()": "2394",
            "maxPurchase()": "2306",
            "minPurchase()": "2307",
            "price()": "2328",
            "release()": "infinite",
            "released()": "2310",
            "sales(uint256)": "6861",
            "setToken(address)": "26677",
            "start(uint256,uint256,uint256,uint256)": "infinite",
            "withdraw()": "infinite"
        }
    }
}