{
    "contractName": "LPSToken",
    "abi": [
        {
            "inputs": [],
            "stateMutability": "nonpayable",
            "type": "constructor"
        },
        {
            "anonymous": false,
            "inputs": [
                {
                    "indexed": true,
                    "internalType": "address",
                    "name": "owner",
                    "type": "address"
                },
                {
                    "indexed": true,
                    "internalType": "address",
                    "name": "spender",
                    "type": "address"
                },
                {
                    "indexed": false,
                    "internalType": "uint256",
                    "name": "value",
                    "type": "uint256"
                }
            ],
            "name": "Approval",
            "type": "event"
        },
        {
            "anonymous": false,
            "inputs": [
                {
                    "indexed": true,
                    "internalType": "address",
                    "name": "previousOwner",
                    "type": "address"
                },
                {
                    "indexed": true,
                    "internalType": "address",
                    "name": "newOwner",
                    "type": "address"
                }
            ],
            "name": "OwnershipTransferred",
            "type": "event"
        },
        {
            "anonymous": false,
            "inputs": [
                {
                    "indexed": true,
                    "internalType": "address",
                    "name": "from",
                    "type": "address"
                },
                {
                    "indexed": true,
                    "internalType": "address",
                    "name": "to",
                    "type": "address"
                },
                {
                    "indexed": false,
                    "internalType": "uint256",
                    "name": "value",
                    "type": "uint256"
                }
            ],
            "name": "Transfer",
            "type": "event"
        },
        {
            "anonymous": false,
            "inputs": [
                {
                    "indexed": false,
                    "internalType": "uint256",
                    "name": "",
                    "type": "uint256"
                }
            ],
            "name": "tokensWithdrawnedForOwners",
            "type": "event"
        },
        {
            "inputs": [],
            "name": "admin",
            "outputs": [
                {
                    "internalType": "address",
                    "name": "",
                    "type": "address"
                }
            ],
            "stateMutability": "view",
            "type": "function"
        },
        {
            "inputs": [
                {
                    "internalType": "address",
                    "name": "owner",
                    "type": "address"
                },
                {
                    "internalType": "address",
                    "name": "spender",
                    "type": "address"
                }
            ],
            "name": "allowance",
            "outputs": [
                {
                    "internalType": "uint256",
                    "name": "",
                    "type": "uint256"
                }
            ],
            "stateMutability": "view",
            "type": "function"
        },
        {
            "inputs": [
                {
                    "internalType": "address",
                    "name": "spender",
                    "type": "address"
                },
                {
                    "internalType": "uint256",
                    "name": "amount",
                    "type": "uint256"
                }
            ],
            "name": "approve",
            "outputs": [
                {
                    "internalType": "bool",
                    "name": "",
                    "type": "bool"
                }
            ],
            "stateMutability": "nonpayable",
            "type": "function"
        },
        {
            "inputs": [
                {
                    "internalType": "address",
                    "name": "account",
                    "type": "address"
                }
            ],
            "name": "balanceOf",
            "outputs": [
                {
                    "internalType": "uint256",
                    "name": "",
                    "type": "uint256"
                }
            ],
            "stateMutability": "view",
            "type": "function"
        },
        {
            "inputs": [],
            "name": "decimals",
            "outputs": [
                {
                    "internalType": "uint8",
                    "name": "",
                    "type": "uint8"
                }
            ],
            "stateMutability": "view",
            "type": "function"
        },
        {
            "inputs": [
                {
                    "internalType": "address",
                    "name": "spender",
                    "type": "address"
                },
                {
                    "internalType": "uint256",
                    "name": "subtractedValue",
                    "type": "uint256"
                }
            ],
            "name": "decreaseAllowance",
            "outputs": [
                {
                    "internalType": "bool",
                    "name": "",
                    "type": "bool"
                }
            ],
            "stateMutability": "nonpayable",
            "type": "function"
        },
        {
            "inputs": [
                {
                    "internalType": "address",
                    "name": "spender",
                    "type": "address"
                },
                {
                    "internalType": "uint256",
                    "name": "addedValue",
                    "type": "uint256"
                }
            ],
            "name": "increaseAllowance",
            "outputs": [
                {
                    "internalType": "bool",
                    "name": "",
                    "type": "bool"
                }
            ],
            "stateMutability": "nonpayable",
            "type": "function"
        },
        {
            "inputs": [],
            "name": "lastTeamTokensClaim",
            "outputs": [
                {
                    "internalType": "uint256",
                    "name": "",
                    "type": "uint256"
                }
            ],
            "stateMutability": "view",
            "type": "function"
        },
        {
            "inputs": [],
            "name": "name",
            "outputs": [
                {
                    "internalType": "string",
                    "name": "",
                    "type": "string"
                }
            ],
            "stateMutability": "view",
            "type": "function"
        },
        {
            "inputs": [],
            "name": "owner",
            "outputs": [
                {
                    "internalType": "address",
                    "name": "",
                    "type": "address"
                }
            ],
            "stateMutability": "view",
            "type": "function"
        },
        {
            "inputs": [],
            "name": "renounceOwnership",
            "outputs": [],
            "stateMutability": "nonpayable",
            "type": "function"
        },
        {
            "inputs": [],
            "name": "symbol",
            "outputs": [
                {
                    "internalType": "string",
                    "name": "",
                    "type": "string"
                }
            ],
            "stateMutability": "view",
            "type": "function"
        },
        {
            "inputs": [],
            "name": "tokendecimals",
            "outputs": [
                {
                    "internalType": "uint8",
                    "name": "",
                    "type": "uint8"
                }
            ],
            "stateMutability": "view",
            "type": "function"
        },
        {
            "inputs": [],
            "name": "tokenname",
            "outputs": [
                {
                    "internalType": "string",
                    "name": "",
                    "type": "string"
                }
            ],
            "stateMutability": "view",
            "type": "function"
        },
        {
            "inputs": [],
            "name": "tokensForOwnersLeft",
            "outputs": [
                {
                    "internalType": "uint256",
                    "name": "",
                    "type": "uint256"
                }
            ],
            "stateMutability": "view",
            "type": "function"
        },
        {
            "inputs": [],
            "name": "tokensGivenToOwnersPerClaim",
            "outputs": [
                {
                    "internalType": "uint256",
                    "name": "",
                    "type": "uint256"
                }
            ],
            "stateMutability": "view",
            "type": "function"
        },
        {
            "inputs": [],
            "name": "tokensymbol",
            "outputs": [
                {
                    "internalType": "string",
                    "name": "",
                    "type": "string"
                }
            ],
            "stateMutability": "view",
            "type": "function"
        },
        {
            "inputs": [],
            "name": "totalSupply",
            "outputs": [
                {
                    "internalType": "uint256",
                    "name": "",
                    "type": "uint256"
                }
            ],
            "stateMutability": "view",
            "type": "function"
        },
        {
            "inputs": [],
            "name": "totalTokenSupply",
            "outputs": [
                {
                    "internalType": "uint256",
                    "name": "",
                    "type": "uint256"
                }
            ],
            "stateMutability": "view",
            "type": "function"
        },
        {
            "inputs": [
                {
                    "internalType": "address",
                    "name": "to",
                    "type": "address"
                },
                {
                    "internalType": "uint256",
                    "name": "amount",
                    "type": "uint256"
                }
            ],
            "name": "transfer",
            "outputs": [
                {
                    "internalType": "bool",
                    "name": "",
                    "type": "bool"
                }
            ],
            "stateMutability": "nonpayable",
            "type": "function"
        },
        {
            "inputs": [
                {
                    "internalType": "address",
                    "name": "from",
                    "type": "address"
                },
                {
                    "internalType": "address",
                    "name": "to",
                    "type": "address"
                },
                {
                    "internalType": "uint256",
                    "name": "amount",
                    "type": "uint256"
                }
            ],
            "name": "transferFrom",
            "outputs": [
                {
                    "internalType": "bool",
                    "name": "",
                    "type": "bool"
                }
            ],
            "stateMutability": "nonpayable",
            "type": "function"
        },
        {
            "inputs": [
                {
                    "internalType": "address",
                    "name": "newOwner",
                    "type": "address"
                }
            ],
            "name": "transferOwnership",
            "outputs": [],
            "stateMutability": "nonpayable",
            "type": "function"
        },
        {
            "inputs": [],
            "name": "withdrawTeamTokens",
            "outputs": [],
            "stateMutability": "nonpayable",
            "type": "function"
        },
        {
            "stateMutability": "payable",
            "type": "receive"
        }
    ],
    "bytecode": "60c0604052601360808190527f4c6f737420506172616469736520546f6b656e0000000000000000000000000060a0908152620000409160069190620006ba565b50604080518082019091526003808252624c505360e81b60209092019182526200006d91600791620006ba565b506008805460ff191660129081179091556200008b90600a62000873565b6200009b90633b9aca0062000884565b600955348015620000ab57600080fd5b5060068054620000bb90620008a6565b80601f0160208091040260200160405190810160405280929190818152602001828054620000e990620008a6565b80156200013a5780601f106200010e576101008083540402835291602001916200013a565b820191906000526020600020905b8154815290600101906020018083116200011c57829003601f168201915b5050505050600780546200014e90620008a6565b80601f01602080910402602001604051908101604052809291908181526020018280546200017c90620008a6565b8015620001cd5780601f10620001a157610100808354040283529160200191620001cd565b820191906000526020600020905b815481529060010190602001808311620001af57829003601f168201915b50508451620001e7935060039250602086019150620006ba565b508051620001fd906004906020840190620006ba565b5050506200021a620002146200038660201b60201c565b6200038a565b6200022e30600954620003dc60201b60201c565b62000285600b60009054906101000a90046001600160a01b03166200027f60646200026b6050600954620004b460201b620008ff1790919060201c565b620004cb60201b620009121790919060201c565b620004d9565b50620002c3600c60009054906101000a90046001600160a01b03166200027f60646200026b600a600954620004b460201b620008ff1790919060201c565b5062000301600d60009054906101000a90046001600160a01b03166200027f60646200026b6005600954620004b460201b620008ff1790919060201c565b5062000340600e60009054906101000a90046001600160a01b03166200027f6103e86200026b6019600954620004b460201b620008ff1790919060201c565b5030600090815260208190526040902054600f8190556200036490600c90620008e3565b601155600a80546001600160a01b031916331790556224ea0060105562000921565b3390565b600580546001600160a01b038381166001600160a01b0319831681179093556040519116919082907f8be0079c531659141344cd1fd0a4f28419497f9722a3daafe3b4186f6b6457e090600090a35050565b6001600160a01b038216620004385760405162461bcd60e51b815260206004820152601f60248201527f45524332303a206d696e7420746f20746865207a65726f20616464726573730060448201526064015b60405180910390fd5b80600260008282546200044c919062000906565b90915550506001600160a01b038216600090815260208190526040812080548392906200047b90849062000906565b90915550506040518181526001600160a01b03831690600090600080516020620018418339815191529060200160405180910390a35050565b6000620004c2828462000884565b90505b92915050565b6000620004c28284620008e3565b600033620004e9818585620004f3565b5060019392505050565b6001600160a01b038316620005595760405162461bcd60e51b815260206004820152602560248201527f45524332303a207472616e736665722066726f6d20746865207a65726f206164604482015264647265737360d81b60648201526084016200042f565b6001600160a01b038216620005bd5760405162461bcd60e51b815260206004820152602360248201527f45524332303a207472616e7366657220746f20746865207a65726f206164647260448201526265737360e81b60648201526084016200042f565b6001600160a01b03831660009081526020819052604090205481811015620006375760405162461bcd60e51b815260206004820152602660248201527f45524332303a207472616e7366657220616d6f756e7420657863656564732062604482015265616c616e636560d01b60648201526084016200042f565b6001600160a01b038085166000908152602081905260408082208585039055918516815290812080548492906200067090849062000906565b92505081905550826001600160a01b0316846001600160a01b03166000805160206200184183398151915284604051620006ac91815260200190565b60405180910390a350505050565b828054620006c890620008a6565b90600052602060002090601f016020900481019282620006ec576000855562000737565b82601f106200070757805160ff191683800117855562000737565b8280016001018555821562000737579182015b82811115620007375782518255916020019190600101906200071a565b506200074592915062000749565b5090565b5b808211156200074557600081556001016200074a565b634e487b7160e01b600052601160045260246000fd5b600181815b80851115620007b75781600019048211156200079b576200079b62000760565b80851615620007a957918102915b93841c93908002906200077b565b509250929050565b600082620007d057506001620004c5565b81620007df57506000620004c5565b8160018114620007f85760028114620008035762000823565b6001915050620004c5565b60ff84111562000817576200081762000760565b50506001821b620004c5565b5060208310610133831016604e8410600b841016171562000848575081810a620004c5565b62000854838362000776565b80600019048211156200086b576200086b62000760565b029392505050565b6000620004c260ff841683620007bf565b6000816000190483118215151615620008a157620008a162000760565b500290565b600181811c90821680620008bb57607f821691505b60208210811415620008dd57634e487b7160e01b600052602260045260246000fd5b50919050565b6000826200090157634e487b7160e01b600052601260045260246000fd5b500490565b600082198211156200091c576200091c62000760565b500190565b610f1080620009316000396000f3fe6080604052600436106101445760003560e01c80638da5cb5b116100b6578063dc7a1b471161006f578063dc7a1b4714610370578063dd62ed3e14610386578063e0c20d13146103cc578063f2fde38b146103e2578063f851a44014610402578063fd4004751461042257600080fd5b80638da5cb5b146102be578063953b7ef8146102f057806395d89b4114610305578063a457c2d71461031a578063a9059cbb1461033a578063ccd7cf6a1461035a57600080fd5b8063313ce56711610108578063313ce5671461020057806339509351146102225780633f9a86901461024257806370a082311461025c578063715018a6146102925780637f8bb1aa146102a957600080fd5b806306fdde0314610150578063095ea7b31461017b57806318160ddd146101ab5780631ca8b6cb146101ca57806323b872dd146101e057600080fd5b3661014b57005b600080fd5b34801561015c57600080fd5b50610165610437565b6040516101729190610cf4565b60405180910390f35b34801561018757600080fd5b5061019b610196366004610d65565b6104c9565b6040519015158152602001610172565b3480156101b757600080fd5b506002545b604051908152602001610172565b3480156101d657600080fd5b506101bc60095481565b3480156101ec57600080fd5b5061019b6101fb366004610d8f565b6104e1565b34801561020c57600080fd5b5060125b60405160ff9091168152602001610172565b34801561022e57600080fd5b5061019b61023d366004610d65565b610505565b34801561024e57600080fd5b506008546102109060ff1681565b34801561026857600080fd5b506101bc610277366004610dcb565b6001600160a01b031660009081526020819052604090205490565b34801561029e57600080fd5b506102a7610544565b005b3480156102b557600080fd5b506101656105af565b3480156102ca57600080fd5b506005546001600160a01b03165b6040516001600160a01b039091168152602001610172565b3480156102fc57600080fd5b506102a761063d565b34801561031157600080fd5b50610165610778565b34801561032657600080fd5b5061019b610335366004610d65565b610787565b34801561034657600080fd5b5061019b610355366004610d65565b610819565b34801561036657600080fd5b506101bc600f5481565b34801561037c57600080fd5b506101bc60115481565b34801561039257600080fd5b506101bc6103a1366004610de6565b6001600160a01b03918216600090815260016020908152604080832093909416825291909152205490565b3480156103d857600080fd5b506101bc60105481565b3480156103ee57600080fd5b506102a76103fd366004610dcb565b610827565b34801561040e57600080fd5b50600a546102d8906001600160a01b031681565b34801561042e57600080fd5b506101656108f2565b60606003805461044690610e19565b80601f016020809104026020016040519081016040528092919081815260200182805461047290610e19565b80156104bf5780601f10610494576101008083540402835291602001916104bf565b820191906000526020600020905b8154815290600101906020018083116104a257829003601f168201915b5050505050905090565b6000336104d781858561091e565b5060019392505050565b6000336104ef858285610a42565b6104fa858585610ad4565b506001949350505050565b3360008181526001602090815260408083206001600160a01b03871684529091528120549091906104d7908290869061053f908790610e6a565b61091e565b6005546001600160a01b031633146105a35760405162461bcd60e51b815260206004820181905260248201527f4f776e61626c653a2063616c6c6572206973206e6f7420746865206f776e657260448201526064015b60405180910390fd5b6105ad6000610ca2565b565b600680546105bc90610e19565b80601f01602080910402602001604051908101604052809291908181526020018280546105e890610e19565b80156106355780601f1061060a57610100808354040283529160200191610635565b820191906000526020600020905b81548152906001019060200180831161061857829003601f168201915b505050505081565b600a546001600160a01b031633146106885760405162461bcd60e51b815260206004820152600e60248201526d27b7363c903a34329027bbb732b960911b604482015260640161059a565b6224ea006010544261069a9190610e82565b116106f35760405162461bcd60e51b8152602060048201526024808201527f4861766520746f20776169742031206d6f6e746820746f20636c61696d20616760448201526330b4b71760e11b606482015260840161059a565b6000600f54116107365760405162461bcd60e51b815260206004820152600e60248201526d139bc81d1bdad95b9cc81319599d60921b604482015260640161059a565b61074233601154610819565b506040514281527fd86a88fb47a94914f0034cfec8ca58e23498decf3534d36f449877354e8515de9060200160405180910390a1565b60606004805461044690610e19565b3360008181526001602090815260408083206001600160a01b03871684529091528120549091908381101561080c5760405162461bcd60e51b815260206004820152602560248201527f45524332303a2064656372656173656420616c6c6f77616e63652062656c6f77604482015264207a65726f60d81b606482015260840161059a565b6104fa828686840361091e565b6000336104d7818585610ad4565b6005546001600160a01b031633146108815760405162461bcd60e51b815260206004820181905260248201527f4f776e61626c653a2063616c6c6572206973206e6f7420746865206f776e6572604482015260640161059a565b6001600160a01b0381166108e65760405162461bcd60e51b815260206004820152602660248201527f4f776e61626c653a206e6577206f776e657220697320746865207a65726f206160448201526564647265737360d01b606482015260840161059a565b6108ef81610ca2565b50565b600780546105bc90610e19565b600061090b8284610e99565b9392505050565b600061090b8284610eb8565b6001600160a01b0383166109805760405162461bcd60e51b8152602060048201526024808201527f45524332303a20617070726f76652066726f6d20746865207a65726f206164646044820152637265737360e01b606482015260840161059a565b6001600160a01b0382166109e15760405162461bcd60e51b815260206004820152602260248201527f45524332303a20617070726f766520746f20746865207a65726f206164647265604482015261737360f01b606482015260840161059a565b6001600160a01b0383811660008181526001602090815260408083209487168084529482529182902085905590518481527f8c5be1e5ebec7d5bd14f71427d1e84f3dd0314c0f7b2291e5b200ac8c7c3b925910160405180910390a3505050565b6001600160a01b038381166000908152600160209081526040808320938616835292905220546000198114610ace5781811015610ac15760405162461bcd60e51b815260206004820152601d60248201527f45524332303a20696e73756666696369656e7420616c6c6f77616e6365000000604482015260640161059a565b610ace848484840361091e565b50505050565b6001600160a01b038316610b385760405162461bcd60e51b815260206004820152602560248201527f45524332303a207472616e736665722066726f6d20746865207a65726f206164604482015264647265737360d81b606482015260840161059a565b6001600160a01b038216610b9a5760405162461bcd60e51b815260206004820152602360248201527f45524332303a207472616e7366657220746f20746865207a65726f206164647260448201526265737360e81b606482015260840161059a565b6001600160a01b03831660009081526020819052604090205481811015610c125760405162461bcd60e51b815260206004820152602660248201527f45524332303a207472616e7366657220616d6f756e7420657863656564732062604482015265616c616e636560d01b606482015260840161059a565b6001600160a01b03808516600090815260208190526040808220858503905591851681529081208054849290610c49908490610e6a565b92505081905550826001600160a01b0316846001600160a01b03167fddf252ad1be2c89b69c2b068fc378daa952ba7f163c4a11628f55a4df523b3ef84604051610c9591815260200190565b60405180910390a3610ace565b600580546001600160a01b038381166001600160a01b0319831681179093556040519116919082907f8be0079c531659141344cd1fd0a4f28419497f9722a3daafe3b4186f6b6457e090600090a35050565b600060208083528351808285015260005b81811015610d2157858101830151858201604001528201610d05565b81811115610d33576000604083870101525b50601f01601f1916929092016040019392505050565b80356001600160a01b0381168114610d6057600080fd5b919050565b60008060408385031215610d7857600080fd5b610d8183610d49565b946020939093013593505050565b600080600060608486031215610da457600080fd5b610dad84610d49565b9250610dbb60208501610d49565b9150604084013590509250925092565b600060208284031215610ddd57600080fd5b61090b82610d49565b60008060408385031215610df957600080fd5b610e0283610d49565b9150610e1060208401610d49565b90509250929050565b600181811c90821680610e2d57607f821691505b60208210811415610e4e57634e487b7160e01b600052602260045260246000fd5b50919050565b634e487b7160e01b600052601160045260246000fd5b60008219821115610e7d57610e7d610e54565b500190565b600082821015610e9457610e94610e54565b500390565b6000816000190483118215151615610eb357610eb3610e54565b500290565b600082610ed557634e487b7160e01b600052601260045260246000fd5b50049056fea2646970667358221220b4c44d52acd1dbcd78e6fc8814c1412eb23bcfd0dd53a99e72d6f03113a9140f64736f6c634300080c0033ddf252ad1be2c89b69c2b068fc378daa952ba7f163c4a11628f55a4df523b3ef",
    "sourcePath": "/Volumes/Disco D/Projects/Blockchain/LostParadise/web3Test/contracts/lps.sol",
    "compiler": {
        "name": "solc",
        "version": "0.8.12+commit.f00d7308"
    },
    "functionHashes": {
        "admin()": "f851a440",
        "allowance(address,address)": "dd62ed3e",
        "approve(address,uint256)": "095ea7b3",
        "balanceOf(address)": "70a08231",
        "decimals()": "313ce567",
        "decreaseAllowance(address,uint256)": "a457c2d7",
        "increaseAllowance(address,uint256)": "39509351",
        "lastTeamTokensClaim()": "e0c20d13",
        "name()": "06fdde03",
        "owner()": "8da5cb5b",
        "renounceOwnership()": "715018a6",
        "symbol()": "95d89b41",
        "tokendecimals()": "3f9a8690",
        "tokenname()": "7f8bb1aa",
        "tokensForOwnersLeft()": "ccd7cf6a",
        "tokensGivenToOwnersPerClaim()": "dc7a1b47",
        "tokensymbol()": "fd400475",
        "totalSupply()": "18160ddd",
        "totalTokenSupply()": "1ca8b6cb",
        "transfer(address,uint256)": "a9059cbb",
        "transferFrom(address,address,uint256)": "23b872dd",
        "transferOwnership(address)": "f2fde38b",
        "withdrawTeamTokens()": "953b7ef8"
    },
    "gasEstimates": {
        "creation": {
            "codeDepositCost": "771200",
            "executionCost": "infinite",
            "totalCost": "infinite"
        },
        "external": {
            "admin()": "2447",
            "allowance(address,address)": "infinite",
            "approve(address,uint256)": "24647",
            "balanceOf(address)": "2629",
            "decimals()": "213",
            "decreaseAllowance(address,uint256)": "26989",
            "increaseAllowance(address,uint256)": "26990",
            "lastTeamTokensClaim()": "2361",
            "name()": "infinite",
            "owner()": "2343",
            "renounceOwnership()": "28228",
            "symbol()": "infinite",
            "tokendecimals()": "2380",
            "tokenname()": "infinite",
            "tokensForOwnersLeft()": "2428",
            "tokensGivenToOwnersPerClaim()": "2317",
            "tokensymbol()": "infinite",
            "totalSupply()": "2349",
            "totalTokenSupply()": "2385",
            "transfer(address,uint256)": "51293",
            "transferFrom(address,address,uint256)": "infinite",
            "transferOwnership(address)": "28400",
            "withdrawTeamTokens()": "60627"
        }
    }
}